:020000040800F2
:10000000B0D00020450100083D7C0108653601089C
:1000100081790108252900080D4903080000000026
:100020000000000000000000000000005DE0020889
:1000300011A3000800000000E5A40108D10C03088A
:100040005F0100085F0100085F0100085F01000810
:100050005F0100085F0100085F0100085F01000800
:10006000A5E300085F0100085F0100085F010008C8
:100070005F0100085F0100085F0100085F010008E0
:100080005F0100085F0100085F0100085F010008D0
:10009000E13E03085F0100085F010008DDE300089E
:1000A0005F0100085F0100085F0100085F010008B0
:1000B000E90D0308A10F03085F0100085F010008B4
:1000C0005F0100085F0100085F0100085F01000890
:1000D0005F0100086137030831380308213903083C
:1000E0005F0100085F010008653C03085F0100082C
:1000F0005F0100085F0100085F0100085F01000860
:100100005F01000809D402085F0100085F010008D0
:100110005F0100085F010008B1100308E111030846
:100120005F0100085F0100085F0100085F0100082F
:10013000DFF80CD000F0EEFA0048004785720308A3
:10014000B0D000200648804706480047FEE7FEE79B
:10015000FEE7FEE7FEE7FEE7FEE7FEE7FEE7FEE777
:10016000590D0308310100082DE9F05F0546002014
:1001700092469B4688460646814640241BE0284618
:1001800041464746224600F0C4F853465A46C01A34
:10019000914110D311461846224600F0ABF82D1AB3
:1001A00067EB01084F4622460120002100F0A2F82B
:1001B00017EB00094E41201EA4F10104DFDC484684
:1001C00031462A464346BDE8F09F40EA01039B07BB
:1001D00003D009E008C9121F08C0042AFAD203E0BC
:1001E00011F8013B00F8013B521EF9D27047D2B220
:1001F00001E000F8012B491EFBD270470022F6E710
:1002000010B513460A4604461946FFF7F0FF20468C
:1002100010BD421E12F8013F002BFBD111F8013B2B
:1002200002F8013B002BF9D1704710B5044604E0F9
:100230000B7800F8013B03B1491C521EF8D220464E
:1002400010BDCAB2401E10F8011F8A4202D0002918
:10025000F9D100207047421C10F8011B0029FBD186
:10026000801A704730B504460020034600E05B1C4E
:10027000934203D2E05CCD5C401BF8D030BD034616
:1002800011F8012B00F8012B002AF9D1184670470C
:1002900030B505460020034600E05B1C934205D2C2
:1002A000EC5CC85C201A01D1002CF6D130BD70B5D1
:1002B000064635F091FA046805460A2200213046C8
:1002C00000F037F82C6070BD30B50B4601460020B9
:1002D0002022012409E021FA02F59D4205D303FA08
:1002E00002F5491B04FA02F52844151EA2F1010289
:1002F000F1DC30BD202A04DB203A00FA02F10020B4
:1003000070479140C2F1200320FA03F31943904053
:100310007047202A04DB203A21FA02F000217047BE
:1003200021FA02F3D040C2F120029140084319465D
:1003300070472DE9F04791460F4680460446002657
:1003400014F8015B2DB100F009FA0068405DC007A8
:10035000F6D12B2D02D02D2D18D0641E4A463946D9
:10036000204600F0FFF927B13968A14201D1C7F852
:10037000008071054FF002040BD54042002803DDD8
:1003800035F02AFA0460A007BDE8F08746F48066DD
:10039000E4E70028F8DA35F01FFA04606FF0004057
:1003A000F2E72DE9FE4F804681EA0300C00F0C46BC
:1003B000009021F0004123F00045B8EB0200A94174
:1003C00005D24046214690461C460B46024623F085
:1003D0000040104347D0270DC7F30A00C3F30A516A
:1003E0000290401A019040286BDAC3F3130040F4E6
:1003F000801B0098924620B10023D2EB030A63EBE6
:100400000B0B01985946C0F140025046FFF772FFAE
:1004100006460D4650465946019A00F08DF910EBFC
:1004200008006141002487EA115284EAE7731A4305
:1004300040D0009A62B3019A012A4FEA075215DCB4
:10044000001B61EB02014FF0004202EA0752CDE9C6
:100450000042001C41F5801132462B4600F0E0F9C5
:1004600003B0BDE8F08F40462146F9E7001B61EB81
:100470000201001C41F5801300185B412018A2F511
:10048000001747EB030140EAD570B6196D4111E042
:100490006D084FEA360645EAC0754FEA0752001B61
:1004A00061EB0201001C41F5801149084FEA300060
:1004B0000019514132462B4603B0BDE8F04F00F021
:1004C000A0B90098012240000023D0EB020263EBA8
:1004D000E073009821464FEAE074B8EB000061EB4E
:1004E0000401E9E783F000435BE781F0004158E74E
:1004F0002DE9FE4F81EA030404F0004421F000419D
:1005000000944FF0000B23F0004350EA01045ED04A
:1005100052EA03045BD0C3F30A54C1F30A552C44D6
:10052000A4F2F3340194A0FB0254C1F3130141F48B
:100530008011C3F3130343F4801301FB024400FB57
:10054000034E840A970A44EA815447EA8357A4FB7E
:10055000076802958D0A05FB07854FEA932C04FB7B
:100560000C542705029D4FEA065847EA1637B5EBAB
:1005700008056EEB070C870E920E47EA811742EAD8
:100580008312A7FB0201B6EB0B0164EB00042B0DF9
:1005900043EA0C335E1844EB1C50DA465146E7FB45
:1005A0000201C5F313044FEA0B3343EA14534FEA35
:1005B0000432019C43EA0603A4F10C040294009C5B
:1005C000CDE900B400F02CF903B0BDE8F08F0020B5
:1005D0000146F9E72DE9F04D81EA030404F0004BF0
:1005E00021F0004514464FF0000A23F0004150EA84
:1005F000050220D054EA01021DD0C5F30A57024675
:10060000C5F31303C1F31300C1F30A5640F4801578
:1006100043F48013A7EB0608101BD64608F2FD38FA
:1006200073EB050002D308F1010801E092185B4169
:10063000B8F1000F03DA00200146BDE8F08D00207C
:100640004FF48011064684460EE0171B73EB050736
:1006500005D3121B63EB050306434CEA010C490862
:100660004FEA300092185B4150EA0107EDD152EA9F
:10067000030012D082EA040083EA0501084305D092
:10068000101BAB4106D20122002306E000224FF0EE
:10069000004302E06FF0010253101AEB06004CEB2E
:1006A000085110EB0A0041EB0B01BDE8F04D00F0E2
:1006B000A8B8C1F30A52C1F3130140F2FF3341F469
:1006C00080119A4202DA00200146704740F233431B
:1006D0009A42A2F2334202DC5242FFF71ABEFFF7FF
:1006E00009BE000030B5041E71F1000404DB4FF0B8
:1006F0000044404264EB0101141E73F1000405DB69
:100700001C464FF00043524263EB0403994208BF7A
:10071000904230BD064C074D06E0E06840F0010312
:1007200094E8070098471034AC42F6D3FFF704FD75
:10073000F0E8040810E90408202A06DBCB17203A69
:1007400041FA02F043EAE07306E041FA02F3D040D6
:10075000C2F1200291400843194670470048704793
:10076000A0CA04082DE9F05F8246007800271546EC
:100770008B460AF10104B946302801D09DB113E03F
:1007800014F8010B0127782803D0582801D045B16F
:100790000AE00DB1102D07D10027102514F8010B28
:1007A00002E0082500E00A250026B0460EE005FB21
:1007B000080005FB06F1012701EB10461FFA80F83F
:1007C000B6F5803F00D3B94614F8010B294600F076
:1007D00075F80028EBDABBF1000F05D00FB1641EED
:1007E00000E05446CBF80040B9F1000F06D034F0D9
:1007F000F3FF02210160C81EBDE8F09F48EA0640F1
:10080000FAE710B5141E73F1000408DA401C41F138
:10081000000192185B411A4301D120F0010010BD84
:100820002DE9F04D92469B4611B1B1FA81F202E0FA
:10083000B0FA80F220329046FFF75CFD04460F4686
:1008400040EA0A0041EA0B0153465A46084313D0D6
:10085000114653EA010019D0C8F140025046FFF793
:1008600058FD05460E46504659464246FFF742FDA2
:10087000084305D0012004E020463946BDE8F08D4C
:100880000020054346EAE0762C4337430A98630587
:10089000E40AA0EB08000022FD0A44EA47540A30AB
:1008A00002D500200146E9E7010510196941DDE99B
:1008B000084500196941BDE8F04DA2E73A2800D289
:1008C000303820F02002412A01D3A2F137008842BB
:1008D00001D34FF0FF30704770B58C1810F8015BF2
:1008E00015F0070301D110F8013B2A1106D110F8C9
:1008F000012B03E010F8016B01F8016B5B1EF9D1CD
:100900002B0705D40023521E0DD401F8013BFAE752
:1009100010F8013BCB1A921C03E013F8015B01F8BD
:10092000015B521EF9D5A142D8D3002070BD000052
:1009300000B591B001214FF4047029F0ABFE012104
:10094000084629F087FE4FF4404029F077FE2648FC
:1009500009F038F9254801902548029000200390BD
:10096000032004900020059080200690400007900E
:10097000800008902020099000020A9000200B902F
:1009800001A9194809F0C4F90121174809F00EF925
:1009900000200C9001208DF834008DF835004FF4C4
:1009A00060200E9000200F9003208DF840000CA9CD
:1009B0000E484C3800F034F8072301220E210B4872
:1009C0004C3800F055F8072302220F2107484C3815
:1009D00000F04EF803231A460A2104484C3800F070
:1009E00047F811B000BD0000080002404C2401404F
:1009F0008000002021B1826842F00102826003E0A1
:100A0000826822F001028260704721B1826842F45C
:100A10008072826003E0826822F480728260704794
:100A200030B502460020002350680F4C20400D795D
:100A30000C6844EA05242043506090680B4C204029
:100A4000D1E902542C434D7944EA45042043906097
:100A5000D06A20F470000C7C641EE4B2234340EAA8
:100A60000350D06230BD0000FFFEF0FFFDF7F1FF44
:100A7000F0B504460D4600200021092D11DDE06887
:100A8000A5F10A0606EB4607072606FA07F1884392
:100A9000A5F10A0606EB460603FA06F10843E060F4
:100AA0000CE0206905EB4507072606FA07F18843A5
:100AB00005EB450603FA06F108432061072A0FDA21
:100AC000606B561E06EB86071F2606FA07F1884361
:100AD000561E06EB860605FA06F10843606322E01F
:100AE0000D2A0FDA206BD61F06EB86071F2606FAA3
:100AF00007F18843D61F06EB860605FA06F1084380
:100B0000206310E0E06AA2F10D0606EB86071F26BF
:100B100006FA07F18843A2F10D0606EB860605FAF0
:100B200006F10843E062F0BD21B1826842F4A00200
:100B3000826003E0826822F4A002826070470000B5
:100B40002DE9F04105460E46287800F080004D4919
:100B50000870307800F080004B490870287800F069
:100B600007004A490870307800F0070048490870CB
:100B700011214848FFF742FB11214748FFF73EFB90
:100B80004448D5F801100160D5F80510416042488D
:100B9000D6F801100160D6F8051041603B48007896
:100BA0003B49097888420FDD07E039480078401C4E
:100BB00037490870384800F0E7FF34480078344976
:100BC00009788842F1DC14E030480078304909782F
:100BD00088420EDA07E02D480078401C2B49087047
:100BE0002C4800F0D1FF294800782949097888422B
:100BF000F1DB072425E02748005D2749095D88428D
:100C000000DD20E02348005D2349095D884216DAB3
:100C1000002409E01F48075D1F48005D1D49085575
:100C20001D480755601C04B2082CF3DB16480778F2
:100C300014480078144908701248077003E0601ED9
:100C400004B2002CD7DA00BF0E4800780E490978AC
:100C5000884202D100F024F801E02FF099FC094805
:100C600000780E49087008F099FA0C48007828704E
:100C700008480168C5F801104068C5F80500BDE8DE
:100C8000F081000007020020080200200902002075
:100C90000A020020F51C0020061D0020060200208C
:100CA00070B500210024002030E01A4D2D5C05F0C5
:100CB0000F05184E365C361106EB860605EB460529
:100CC000EAB2154D2D5C05F00F05134E365C36115A
:100CD00006EB860605EB4605EBB2D5182544E9B2CE
:100CE000632904DDA1F16405E9B2012400E00024D8
:100CF0000A2591FBF5F605FB16150A2691FBF6F67B
:100D000005EB0615034E3554451C28B21028CCDBE4
:100D100070BD0000F51C0020061D002010B50FF06E
:100D20008FFE144890F8C206134909680844124916
:100D3000086000200F4981F8290F15E00D4890F850
:100D4000291F00F2C46000EBC10100F63C300A68C4
:100D500002604968416000F05BFA064890F8290F8C
:100D6000401C044981F8290F024890F8290F0628F1
:100D7000E4DB10BD581D00200002002010B50FF06C
:100D80006FFE144890F8F7061349096808441249A1
:100D9000086000200F4981F8290F15E00D4890F8F0
:100DA000291F00F2F96000EBC10100F607300A6864
:100DB00002604968416000F02BFA064890F8290F5C
:100DC000401C044981F8290F024890F8290F062891
:100DD000E4DB10BD581D00200002002010B51948AA
:100DE000B0F84F1FB0F82907814229DA0FF002FF4F
:100DF000144890F82D0714490968084412490860FE
:100E00000020104981F8290F15E00E4890F8291F9D
:100E100000F2327000EBC10100F6CE200A680260D9
:100E20004968416000F0F4F9064890F8290F401C29
:100E3000044981F8290F034890F8290F0628E4DBBC
:100E400010BD0000581D00200002002010B50FF05A
:100E500021FF144890F865071349096808441249AE
:100E6000086000200F4981F8290F15E00D4890F81F
:100E7000291F00F2677000EBC10100F699200A6893
:100E800002604968416000F0C3F9064890F8290FF4
:100E9000401C044981F8290F024890F8290F0628C0
:100EA000E4DB10BD581D00200002002010B51948D9
:100EB00090F8021F90F89707814229DA0FF0FAFEA6
:100EC000144890F89A0714490968084412490860C0
:100ED0000020104981F8290F15E00E4890F8291FCD
:100EE00000F29C7000EBC10100F664200A68026009
:100EF0004968416000F08CF9064890F8290F401CC1
:100F0000044981F8290F034890F8290F0628E4DBEB
:100F100010BD0000581D00200002002010B52B4815
:100F2000D0F8A1042A4908600020284981F8290F37
:100F300015E0264890F8291F00F28F6000EBC101F0
:100F400000F671300A6802604968416000F060F99B
:100F50001E4890F8290F401C1C4981F8290F1B4896
:100F600090F8290F0628E4DB1848B0F8511FB0F8B4
:100F7000CC07814229DA0FF00FFF144890F8D00710
:100F80001349096808441249086000200F4981F894
:100F9000290F15E00D4890F8291F00F2D27000EBE0
:100FA000C10100F62E200A6802604968416000F025
:100FB0002FF9064890F8290F401C044981F8290FA1
:100FC000024890F8290F0628E4DB10BD581D0020C8
:100FD000000200201CB52A48B0F8CD4E294812F076
:100FE0002BF8284BDA78997818880DF03EFB2649C3
:100FF0004881B4F5006F3DDA4FF4004101EB041075
:10100000214A0A32102135F051FB1F490C80002083
:101010004880009001904FF4804101EBC4006A4683
:10102000082135F043FB1648B0F8CD0E401C81B2C4
:101030001348A0F8CD1EC4F3090413480088B0F586
:10104000806F04DA10480089B0F5804F09D00E484F
:101050000088B0F5806F11DB0B480089B0F5C04FF8
:101060000CD109481A3000EBC400009901600199C5
:10107000416003E05A20024981F8030F1CBD0000C3
:10108000581D0020E94C00205459002010B510F0E4
:10109000EBFC144890F80808134909680844124901
:1010A000086000200F4981F8290F15E00D4890F8DD
:1010B000291F00F61A0000EBC10100F6E6100A68CD
:1010C00002604968416000F0A3F8064890F8290FD3
:1010D000401C044981F8290F024890F8290F06287E
:1010E000E4DB10BD581D00200002002010B54FF0B9
:1010F000FF3010F083FD144890F81908134909686F
:1011000008441249086000200F4981F8290F15E0B2
:101110000D4890F8291F00F64A0000EBC10100F6C7
:10112000B6100A6802604968416000F071F806482C
:1011300090F8290F401C044981F8290F024890F8C3
:10114000290F0628E4DB10BD581D002000020020F6
:1011500010B510F083FD144890F880081349096811
:1011600008441249086000200F4981F8290F15E052
:101170000D4890F8291F00F6870000EBC10100F62A
:1011800079100A6802604968416000F041F8064839
:1011900090F8290F401C044981F8290F024890F863
:1011A000290F0628E4DB10BD581D00200002002096
:1011B00010B510F0D9FD144890F8BA081349096821
:1011C00008441249086000200F4981F8290F15E0F2
:1011D0000D4890F8291F00F6BC0000EBC10100F695
:1011E00044100A6802604968416000F011F806483E
:1011F00090F8290F401C044981F8290F024890F803
:10120000290F0628E4DB10BD581D00200002002035
:1012100070B5664890F8140F00B170BD644890F83E
:10122000000200B9F9E76348407800B9F5E75F4884
:1012300090F81C0F00B1F0E700245D4890F8000220
:1012400000F0010018B15B484078204484B258484F
:1012500090F8000200F0020018B15648407820448F
:1012600084B2534890F8000200F0040018B15148CD
:101270004078204484B24E4890F8000200F0080004
:1012800018B14C484078204484B22546474890F82D
:10129000290F06285CD2DFE800F003061B30455A10
:1012A0000024002555E04148B0F82D0500B9B4E709
:1012B0003E48B0F82D053D49B1F84B1F401A684330
:1012C00085B23A48B0F84B0F401E604384B240E00C
:1012D000364890F8560900B99FE7344890F8560907
:1012E000324991F8361F401A401E684385B22F4894
:1012F00090F8360F604384B22BE02C4890F88709B1
:1013000000B98AE7294890F88709284991F8FF1E13
:10131000401A401E684385B2244890F8FF0E60438F
:1013200084B216E0214890F8880900B975E71F4893
:1013300090F888091D4991F8211F401A401E684302
:1013400085B21A4890F8210F604384B201E064E747
:1013500000BF00BF184800682044174908601448BF
:1013600090F8000200F0010008B100F0F9F8104810
:1013700090F8000200F0020008B100F0F1F80C480B
:1013800090F8000200F0040008B100F0E9F8084805
:1013900090F8000200F0080008B100F0E1F80648FB
:1013A000006828440449086000BF36E7581D002043
:1013B000582D0020582F0020000200203EB518486C
:1013C00090F80A0F58BB164890F8070F022826D04D
:1013D000134890F8140F10BB114890F81A0F08B179
:1013E000032400E000240F48016800914168019146
:1013F000007A8DF808000C4820440188ADF80110EF
:1014000080788DF8030009496846FFF799FB064884
:101410002044BDF8011001809DF8031081703EBD8D
:10142000581D00207CB50308352C002085B5030825
:1014300070B504460126184890F8320F444016480B
:1014400090F8330F444000250EE004EA060038B15E
:1014500005EBC501114A8818A2F1A201FFF770FB44
:101460007006060E681CC5B2082DEEDB0B49A239CA
:1014700001F18700FFF764FB0849483901F13600A4
:10148000FFF75EFB044890F8330F034981F8340FEF
:10149000002081F8330F70BD581D0020543C0020FF
:1014A00010B511F0A9FD144890F8EF081349096828
:1014B00008441249086000200F4981F8290F15E0FF
:1014C0000D4890F8291F00F6F10000EBC10100F66D
:1014D0000F100A68026049684160FFF799FE0648EC
:1014E00090F8290F401C044981F8290F024890F810
:1014F000290F0628E4DB10BD581D00200002002043
:1015000010B511F089FD144890F8240913490968B1
:1015100008441249086000200F4981F8290F15E09E
:101520000D4890F8291F00F6261000EBC10100F6C7
:10153000DA000A68026049684160FFF769FE064800
:1015400090F8290F401C044981F8290F024890F8AF
:10155000290F0628E4DB10BD581D002000020020E2
:1015600010B5404890F81A0F60B13E4890F8290F26
:10157000012807D03C4840783C49096808443B4969
:10158000086010BD394804682AF052FC37480460EE
:10159000344890F8F60E38B134F068F832484078A4
:1015A0002044324908605AE02F48807890B12E4894
:1015B0002B30407A00F0080060B92A4890F8380FC4
:1015C00040B9284890F8070F20B9294926482B3000
:1015D000FFF7B6FA2448C07868B123482B30407A28
:1015E00000F0830020492B31487201F68941A1F5B2
:1015F0004860FFF7A5FA1C48007920B11D49A1F603
:101600001D40FFF79DFA18484079A0B119497E3175
:10161000A1F692402EF0FCFF13482B30C07E00F064
:10162000800040B11048463013490A6802604A6899
:101630004260097A01720C48807928B10D491B314A
:10164000A1F62640FFF77CFA0748C07928B109497E
:101650001231A1F61440FFF773FA34F007F800BF17
:101660008FE70000581D0020582F002000020020A6
:1016700085B50308B23B00207CB5030838B50546A4
:10168000681E00B260490880002060490870604907
:1016900081F8030F81F8F30E02205E4908700120E3
:1016A0005D4908701F205D49087047205849A1F81E
:1016B000490F1F205A490873002006F0D3F935F06E
:1016C0005DFA012035F012FD27F042FA00BF00203C
:1016D00006F00EF80090002002F05AFDBDF8000060
:1016E00000B9F4E7BDF80010C8B20FF045FB04469E
:1016F0000E2C00D150E00C2C13D1454890F8410F2E
:1017000000F01000A8B1474890F8780F00F02000D2
:1017100018B1032005F0ECFF02E0022005F0E8FF1D
:10172000D5E734B9009814F089FB012006F09AF946
:10173000CDE7BDF8000000F47F40B0F5807F23D1F5
:10174000384890F8780F00F02000E8B9BDF80000A4
:10175000C0B2402817DABDF800002D4981F81F0FEC
:10176000084690F81F1F00F2214000EB410001885D
:101770002D48A0F8521E02F0A7FD28B12548007898
:1017800000B909E0A3E7A2E7009814F057FB274847
:101790008079274908709AE700BF1D48D0F8410FAB
:1017A00020F488701A49C1F8410F032005F0A0FF0A
:1017B00035F0E4F943201649A1F8490FD1F8750F27
:1017C000082200210AF01EFD00201049087010496F
:1017D00081F8030F124908730E4908700E4908700A
:1017E0000E49087006F03EF942F210710E48A0F85A
:1017F000521E0020064981F8130F4E200D49087033
:10180000002035F073FC38BD8E02002098020020C5
:10181000581D00209502002096020020970200200B
:10182000D94C0020583D0020582D002028180020B9
:10183000990200209A020020002070472DE9F04113
:1018400006460C462EB92F4890F8200400F00F00F1
:1018500040B9002E53D02B4890F8200400F0F0003F
:1018600000284CD0277800202070264890F82004CB
:1018700000F00F051DB9234890F820040509012D3B
:1018800006D0022D12D0032D1FD0042D35D128E013
:10189000607800F00F00052803DB1B492046FFF7A6
:1018A0004FF9607800F0F000607026E06578002065
:1018B0006070742D04DD15492046FFF741F903E0FF
:1018C000242D01DD5020607017E0607800F0F005F5
:1018D00000206070502D03DB0C492046FFF730F9E3
:1018E0000BE0607800F0F00500206070002D03DD53
:1018F00006492046FFF724F900BF00BF2770BDE866
:10190000F0810000581D00208EB5030897B503082C
:1019100010B504463048007830B920224F212F48B6
:10192000FEF765FC06F0D9FA2D4890F8410F00F05B
:101930001000002838D12F2C03D13020FFF7E8FF0A
:1019400030242E2C1AD1264890F8000FA0B901207F
:10195000234981F8000F2048007828BB30201F4918
:1019600081F84D002E2081F84E00002081F84F00B4
:1019700002201949087010BD0020FCE7184890F8B3
:10198000000F88B1302C0FDB392C0DDC144890F897
:10199000000F032801DD0020EDE7114890F8000F4B
:1019A000401C0F4981F8000F0B48007828B14E22E7
:1019B0000A49491C481EFEF708FC084880F84E40BA
:1019C0000020064981F84F0003480078401C024976
:1019D000087008460078CEE799020020F24C0020FB
:1019E000581D002010B501460A12CBB202F00F00BC
:1019F000141104EB840400EB440000EBC00404EB7E
:101A000000104FF6FF7404EA800203F00F001C116F
:101A100004EB840400EB4400104480B210BD0000CD
:101A20002DE9FF4782460C4691461D46DDE90D78BB
:101A30000C9E134890F8E403012802D0022812D12A
:101A400008E02B464A460FA150468DE8D00133F0FE
:101A50009DFE11E04B46224612A150468DE8E00162
:101A600033F094FE08E04B462A4606A150468DE826
:101A7000D00133F08BFE00BF00BFBDE8FF87000040
:101A8000581D0020253032782D253032782D323007
:101A90002530327820253032783A253032783A2590
:101AA000303278003230253032782D253032782DA2
:101AB0002530327820253032783A253032783A2570
:101AC000303278002DE9F0470346002528462946A4
:101AD00006221CE09C5C992C16DC9C5C04F00F0434
:101AE0009D5C2D1105EB850504EB45044FF0640C5E
:101AF0004FF000098046A8FB0C6A01FB0CA700FB15
:101B00000977A01947EBE471A2F1010422B2002A7F
:101B1000E0DABDE8F08730B502460C460023062126
:101B200013E0505C99280EDC505C00F00F00555C0F
:101B30002D1105EB850500EB450003EBC30505EB17
:101B4000031500EB8503481E01B20029E9DA236082
:101B500098B230BD30B500240F30002101E0401EA6
:101B6000491C102902DA0578002DF8D009E0057823
:101B70002D072A0E05782B091D1905701446401EE5
:101B8000491C1029F3DB30BD30B50024002109E0E9
:101B900005782D072A0E05782B09151905701C46A6
:101BA000401C491C1029F3DB30BD0146072005E02D
:101BB0004A1C125C02B103E0421E10B20028F7DAA0
:101BC00000BF421C10B200280BDD421E4B1C9A5C69
:101BD0000F2A04DA0122C2EB400210B201E04200F7
:101BE00010B20A7802F080020AB1421C10B27047AB
:101BF00008B5014600200090034800900098084472
:101C000000900098008808BD006C004008B50022D4
:101C10000092044A0092009A02440092009A1160D5
:101C200008BD0000006C004010B504461548B0F82F
:101C3000780F00F4007020BB4CB113491348B0F882
:101C40007A0008800846007840F0800008700D484F
:101C500090F8780F00F00100C0F10800C0EBC00060
:101C600000EB4002094945390948FEF7AEFA34F065
:101C700085FF0448B0F8780F40F400710148A0F8DF
:101C8000781F10BD583D0020E0010020584C002076
:101C90003818002010B50F4890F8FD0300F0070435
:101CA0001CB10C4890F8030F08B1002010BD611E54
:101CB000C8B20CF07FFC611EC8B205212CF07BFC81
:101CC0000020054908700549087005490880012071
:101CD000ECE70000581D00207D0100207C01002061
:101CE0008001002070B5B34890F8FD0300F00705AF
:101CF0001DB1B04890F8030F08B1002070BDE7E0B7
:101D0000691EC8B202F03AFA30B1691EC8B229F0B1
:101D100087F90446401C08B90020EFE7A648008870
:101D2000B8BB0020A5490870A5490870A5490870EE
:101D3000012C10D0022C12D0062C02D0462C16D129
:101D400011E0691EC8B211212CF035FC02209E4919
:101D500008700020D2E702209B49087009E00020AB
:101D60009949087005E001209749087001E00020BA
:101D7000C4E700BF8F4890F8FD0300F007009249C8
:101D8000097801F00F0140EA01118A4880F8FD133B
:101D900030E0FFE78C48007802282BD1042C1FD1BB
:101DA0008648007880F0030084490870084600786F
:101DB00048B986488078532805D18448008840F285
:101DC000012188420BD0691EC8B20CF0F3FB5520EC
:101DD000784981F8030F0020774908808EE778E082
:101DE0007548B0F90000012804DD744800786040AF
:101DF000724908707248007838B16F48B0F9000035
:101E00006F490978401A012804DC70496A4AB2F91E
:101E100000208C54302C01DB392C01DD2E2C0AD112
:101E20006848007818B964480078664908706248C4
:101E300000786349087060480088401C00B25E4921
:101E4000088061480078012819D1084600880A28CE
:101E500015D15C48007818B90846007859490870CF
:101E600055480078564908702E215348B0F9002093
:101E70000088401C00B2504B1880544881544E4892
:101E8000B0F900001E2801DA0A2C03D100204A49CB
:101E9000088033E70D2C1BD14B48007818B94B480C
:101EA0000078022807D048480078012804D1474824
:101EB0000078462800D10CE0691EC8B20CF07AFB0D
:101EC00055203C4981F8030F00203B49088015E765
:101ED00016E700BF002005F0C5FD691EC8B20CF072
:101EE00069FB00203A490870334908800026002524
:101EF0003448007832490978884259DA3148047800
:101F000032E04EB93148005B43F23001884201D0E3
:101F1000012000E00020064626B300212D48A0F84D
:101F2000541E2A48055D2E2D06D12348008818B975
:101F300001202149088008E01F48008828B11E4878
:101F40000088401C00B21C4908801B48B0F9000002
:101F5000042807DC1F48A0F8525E0146B1F8520E73
:101F600013F098FB601C04B2154800788442C8DD69
:101F7000002011490880012000F0CCF90D48B0F88C
:101F8000490F432804D00B48B0F8490F45280FD11A
:101F900000211048A0F8541E40F2D471A0F8521E3F
:101FA0000120044981F8040F21F0A4F80120A5E6DE
:101FB0000020A3E6581D0020800100207E010020A3
:101FC0007D0100207C010020820100200C170020F0
:101FD0009C020020582D002070B5844890F8FF0323
:101FE00000F00705814890F8030F90B97F48B0F8DA
:101FF000490F42280DD07D48B0F8490F462808D037
:102000007A48B0F8490F472805D1794800781F2849
:1020100001D0002070BD002679E05DB1691EC8B214
:1020200002F0ACF830B1691EC8B228F0F9FF0446DE
:10203000401C08B90020EDE7E4B26E480168006872
:10204000401C6C4A10606C48445410460068FE28DE
:1020500003DB002011460860DCE70A2C11D006DC07
:10206000022C09D0032C31D0092C40D12DE00D2CAD
:102070002AD0242C3BD100E000BF00205D4908603D
:10208000C8E75C480068801E5B49085C0D280AD1DF
:1020900058480068801E5749086000205649554A34
:1020A000126888540EE053480068401E5149086089
:1020B000002051494F4A126888544E48006808B9B8
:1020C0000020A7E7012621E000BF00BF49480068C3
:1020D000401E4849086000204749464A1268885413
:1020E0004448006808B9002094E701260EE0202C3F
:1020F00001DB7E2C09DD3F480068401E3D49086039
:1021000000203D493B4A1268885400BF00BF002EA2
:1021100083D0002005F0A6FC002038490870334821
:10212000B0F8490F47281CD131480078C8B92F4969
:1021300091F82B1F01F0040109B1062100E00421F0
:1021400008462D4916F0A6F905F0D8FE05F0B4FEB4
:102150000822042128480AF055F800202549086083
:1021600058E7244800782649087000202149086073
:102170002449234A1278891A481E21490A781E499F
:10218000FEF723F80120194981F8050F02F0A4FF9A
:102190001648B0F8490F43281CD01448B0F8490F2E
:1021A000452817D000211848A0F8521E00200F49DA
:1021B00081F8130F0846B0F8490F442804D113489A
:1021C0000078134908700FE0084890F8C7031049D9
:1021D000087009E000210C48A0F8541E42F210716A
:1021E000A0F8521E20F086FF012013E7581D0020A2
:1021F00097020020840100202A1700209C02002062
:1022000099020020424D0020582D0020A7020020F6
:102210009002002030B502460B460020591E0EE009
:10222000C40004EB4004555C04EB2510C40004EB2F
:102230004004555C05F00F0560194C1E21B20029C1
:10224000EEDA30BD10B5044611210948FDF7D6FF7E
:10225000074854F8011F016061684160FFF77AFC8C
:1022600003480168216040686060641E10BD000082
:10227000F51C0020D0F80220C0F80120C288A0F888
:102280000520017AC17100220272704710B5044620
:1022900011210948FDF7B2FF074854F8011F0160FA
:1022A00061684160FFF770FC034801682160406885
:1022B0006060641E10BD0000F51C0020072105E0D1
:1022C0004A1E431C9B5C421C5354491E0029F7DCE8
:1022D000002242707047000008210C4A116001285A
:1022E00003D10A210A4A11800EE0022803D12821D5
:1022F000074A118008E0032803D15021044A1180C5
:1023000002E00A21024A11807047000014140140C3
:102310006E00002000B50346D8B2FFF7DDFF0020B5
:1023200000BD00002DE9FC5F8346894616461C4629
:10233000082E00D90826002C3ED02048D0F800A056
:102340004FF00008601E04B229E0A5B205EB0800BA
:1023500085B26D1005FB09A0184908603146684632
:1023600029F07CFC32466946584606F0EFFD0746E8
:10237000002F03DA2CB2601E04B210E037B10FFA5E
:1023800085F808F101000FFA80F808E00B480068B2
:10239000801B0A490860681C80B2BDE8FC9FA0450C
:1023A000D3DD06480068801B04490860002F03DD68
:1023B00008460068484408600020EEE7000200205C
:1023C0002DE9F84381460F4690461C46B9F13C0F73
:1023D00074D009DCB9F1340F11D0B9F1350F0DD03B
:1023E000B9F1360F69D10DE0B9F1440F0CD0B9F154
:1023F000450F7DD0B9F1460F7BD160E07EE0002033
:10240000BDE8F8830020FBE73E48B0F8410F00F438
:10241000006000284ED1F8B28DF80000022608F0C6
:102420000100A0B3384890F8C90F18B930208DF8D2
:10243000010033E02CB1202C03DCE0B28DF8020067
:10244000032631208DF8010014223146684628F019
:10245000E1FA002509E005EB45112C4A8818042211
:102460001F2128F0D7FA681CC5B2082D05DA05EB44
:1024700045102649085C0028EDD100208DF80000A9
:1024800004220121684628F0C5FA0120B8E7FFE7D9
:1024900008F0020010B132208DF801002CB1202C80
:1024A00003DCE0B28DF802000326142231466846B0
:1024B00028F0B0FA0120A3E700E01AE01EE03FB1E7
:1024C0003846FDF7C8FEC6B2202E02DD202600E009
:1024D00000260C48B0F8410F00F4006028B908F05D
:1024E000FF023146384628F095FA012088E7FFE7D9
:1024F00004E0494606A031F073FB00BF00BF002096
:102500007EE70000581D0020582D0020213D0020AE
:10251000436F6D6D616E642025640A0010B588B04C
:10252000044620461D2C7DD00CDCA0F10F000D28A8
:1025300079D2DFE800F0317878302B787878353947
:1025400047433F00502841D006DC332830D03D2897
:1025500009D03F2867D10DE0512878D0522875D096
:102560005328F7D1D0E010F0C5FE009082480088D3
:1025700008B010BD8148B0F8410F00F4006020B9E8
:1025800080220021084628F045FAF1E013F05AFBBA
:1025900028F024F8ECE0EBE013F042FB0020E7E742
:1025A00000200CF025F8E3E001200CF021F8DFE03A
:1025B0000020DDE70320FFF78FFED9E00220FFF7C0
:1025C0008BFED5E00120FFF787FED1E001A835F0B2
:1025D00010F80798B0F5FA6F02DA0020079003E0D0
:1025E0000798A0F5FA6007900A21049890FBF1F291
:1025F00001FB12000A22049991FBF2F100EB011099
:102600005F4908700A21069890FBF1F201FB120065
:102610000A22069991FBF2F100EB0110584948702B
:102620000A2101E09CE09EE0079890FBF1F201FB9B
:1026300012000A22079991FBF2F100EB01105049B8
:1026400088700598C870012092E700E02EE001A88C
:1026500034F0CFFF0A21039890FBF1F201FB120046
:102660000A22039991FBF2F100EB01104549087031
:102670000A21029890FBF1F201FB12000A22029952
:1026800091FBF2F100EB01103E4948700A210198DC
:1026900090FBF1F201FB12000A22019991FBF2F189
:1026A00000EB011037498870002061E701A834F081
:1026B000A0FF3348807800F00F0031498978091174
:1026C00001EB810100EB410000F5FA6007902C4816
:1026D000407800F00F002A494978091101EB810187
:1026E00000EB410006902648007800F00F002449D6
:1026F0000978091101EB810100EB4100049001A868
:1027000034F0A3FF002033E701A834F072FF1D4826
:10271000007800F00F001B490978091101EB8101D5
:1027200000EB410003901748407800F00F00154976
:102730004978091101EB810100EB41000290114839
:10274000807800F00F000F498978091101EB8101B1
:1027500000EB4100019001A834F077FF002007E76B
:1027600002F0AEFE04E7214607A031F039FA00BFBF
:1027700000BF0020FCE60000DA020020581D002007
:102780000000002004000020436F6D6D616E645FE7
:10279000312025640A0000002DE9F84F8046894663
:1027A00015461E46DDF828A0314800680090CB464B
:1027B000A8F10104B8F1030F57DCBAF1000F02D001
:1027C0000020AAF80000D5B909E02EB12848016818
:1027D0000098081AB04202D90020BDE8F88F04EB37
:1027E0008410244901EB0010C06804EB8411214AD5
:1027F00002EB011189688842E7D00120EDE7681CEF
:1028000068B9002004EB84111A4A02EB01118860B8
:1028100004EB841102EB0111C8600120DDE7B9F17E
:10282000000F11D104EB8410124901EB0010C068B5
:1028300004EB84110F4A02EB01118968884201D030
:102840000120CAE70020C8E700270AE032465946BF
:10285000404630F00FFD08B938B2BEE70BF1010B6E
:102860007F1CAF42F2DB2846B7E70020B5E7000047
:10287000DC000020440500202DE9F04705460E4607
:1028800017469946B046032D0EDC002407E098F861
:102890000010284630F08EFE08F10108641CBC428E
:1028A000F5DB0120BDE8F0870020FBE770B50025CF
:1028B00000BF0E48806800F400544FF47A7035F081
:1028C000A7F80A48806800F40056B44204D16D1C91
:1028D0001CB1022D01DD02E00025322DE9DB00BF35
:1028E0000CB9012070BD0020FCE700000010014081
:1028F00030B5024600200FE00B78012484402340CD
:1029000023B13124431D064DEC5403E03024431D14
:10291000034DEC54431C18B20828EDDB30BD000019
:102920005C4D002000BFFEE70146CAB20B1243EA2D
:102930000220704710B503200EF02CF808B10120DA
:1029400010BD064890F84F0120F01401034880F8AC
:102950004F11F52180F84E110020F1E7D12C002015
:102960002DE9F84F81468846404610F007FC0025C7
:1029700081E020214448FDF741FC42204249087093
:102980000E2048704148007828448870B8F1060F3E
:1029900002D0B8F1050F07D13B48C01C3C490A687A
:1029A00002608988818006E03748C01C39490A687E
:1029B0000260898881803448093037490A6802609A
:1029C000898881800224002704E02F48005D384474
:1029D000C7B2641C2C484078401CA042F5DC2A4851
:1029E0004078401C28490F5402200BF0E3FD0023DF
:1029F000102225490320FFF73FFF4FF0000A002671
:102A00000EE000200090C6F1130002B21E488119AA
:102A100032230320FFF7C0FE304406B20AF1010A58
:102A2000BAF10A0F01DA132EEBDB0224002704E0CF
:102A30001548005D3844C7B2641C122CF8DB1248FC
:102A40000078422809D110484078112805D10E4855
:102A5000807CB84201D1132E04DA00270020C9F887
:102A600000000DE0012709EB051010220649891C22
:102A7000FDF7ABFB6D1C094800788542FFF679AF86
:102A800000BF3846BDE8F88F381D002075020020D1
:102A900016B9030810B903081CB903087602002010
:102AA0002DE9F84380460E460025304610F066FBBF
:102AB000002464E020213548FDF7A0FB4220334983
:102AC00008701E2048703248007820448870062E16
:102AD00001D0052E07D12D48C01C2E490A6802607E
:102AE0008988818006E02948C01C2B490A68026059
:102AF000898881802548093028490A6802608988C8
:102B0000818008EB04111022801DFDF75EFB022777
:102B1000002504E01D48C05D2844C5B27F1C1B4849
:102B20004078401CB842F5DC18484078401C1749F2
:102B30000D5402200BF03EFD0023202213490320F8
:102B4000FFF79AFE0A2516E00020322303220F49E0
:102B500000901046FFF720FE0C480078422808D16C
:102B60000A484078012804D108488078592800D1C3
:102B700003E0681EC5B2002DE6D100BF641C084802
:102B80000078844296DB2846BDE8F883381D002093
:102B90007502002016B9030810B903081CB9030810
:102BA0007602002010B500200349086003202BF0B6
:102BB0009DFF012010BD0000780100202DE9F041AB
:102BC00006460C4600271FE002E0052034F020FFF7
:102BD000104800680028F8D000200E490860402CFA
:102BE00001DD402500E02546F0192A46C02131F0DC
:102BF0008FFE294601202BF0A3FF01202BF0CEFFF2
:102C0000601BC4B2781987B2002CDDDC0120BDE85E
:102C1000F08100007401002008B50020009022E13E
:102C20009748008800F00F00964908700846007821
:102C300000287CD1944800689449088008460088A0
:102C400000F03000924908809048008800F440501D
:102C50008E4908808C4909684BF6BF7201EA020070
:102C600080F4005080F0200040F4004141F08001E9
:102C7000854A11608248008800F0100090BB104621
:102C8000006848F60F7108401146086010F016FF02
:102C90007D4909684BF6BF7201EA02007B49098849
:102CA00001F4805109B180F480507849098801F419
:102CB000005109B180F400507549098801F01001F4
:102CC00009B180F010007249098801F0200109B1B2
:102CD00080F0200081B241F4004141F080016A4A55
:102CE000116008BDFFE76848006880B20090BDF839
:102CF000000000F40060B0B363480068C0F30E0049
:102D000048F68F710840604908602CF033FC5E493A
:102D100009684BF6BF7201EA02005C49098801F4B8
:102D2000805109B180F480505849098800E056E08C
:102D300001F4005109B180F400505549098801F0AF
:102D4000100109B180F010005149098801F02001FB
:102D500009B180F0200081B241F4004141F08001CE
:102D6000494A1160BDE7FFE7BDF8000000F40040EC
:102D7000002878D044480068C0F30E0048F68F71F0
:102D800008404149086015F05DFB3F4909684BF672
:102D9000BF7201EA02003D49098801F4805109B17E
:102DA00080F480503949098801F4005109B180F458
:102DB00000503749098801F0100109B180F0100076
:102DC0003349098801F0200109B180F0200081B267
:102DD00041F4004141F080012B4A116081E729480C
:102DE00000782C4901EB8000D0F8000C80B20090F4
:102DF000BDF8000000F40040C0B12248007801EBAB
:102E00008000D0F8000CC0F30E0048F68F71084027
:102E10001C4909781F4A02EB8101C1F8000C1949CD
:102E20000978491E1C4A52F821008047BDF800006D
:102E300000F08000B8B113480078164901EB80001B
:102E4000D0F8000C48F60F7108400E490978114A75
:102E500002EB8101C1F8000C0A490978491E0F4AAA
:102E600052F82100804708484430006880B2044985
:102E7000088000F4004000287FF4D2AE00BF30E7A5
:102E8000400400201C050020005C004030050020AC
:102E90003205002000500040680400204C0400204F
:102EA0002DE9F04190B00546FE4801680A9141685D
:102EB0000B91007A8DF83000FA481B3001680791B9
:102EC00041680891007A8DF82400F6482630416B5D
:102ED0000491816B059190F83C008DF81800F24840
:102EE000B0F8657FB0F84F8F00269DBBEF480168B2
:102EF0000D9141680E91007A8DF83C00EB48016815
:102F0000019141680291007A8DF80C00E548263065
:102F10000169019141690291007E8DF80C00E4493C
:102F200001A814F047FDE348407800F0080028B9F4
:102F30009DF8040080F080008DF80400DA4890F8D5
:102F40001E0F002805D09DF8040080F080008DF849
:102F50000400D0E0FFE7022DFBD1D44801680D91B9
:102F600041680E91007A8DF83C00D04801680191CB
:102F700041680291007A8DF80C00CA482630016938
:102F8000019141690291007E8DF80C0000248EE0D1
:102F9000C4EB0411C84800EB4100008841F28831BD
:102FA00088426DDDC4EB0411C34800EB410000888A
:102FB00042F21071884214DDC4EB0411BE4800EBEC
:102FC00041000088A0F51C501138B749A1F8650FE1
:102FD00028F0A0FCB448B0F8730FB349A1F84F0F24
:102FE0000BE0C4EB0411B44800EB41000088A0F5ED
:102FF00098508938AC49A1F84F0F28F04FF8AD48E8
:10300000407800F0400020B9AA48407800F08000E5
:10301000C0B1A848407800F0400030B1A5482F3832
:1030200090F8220000F0400060B9A248407800F01B
:10303000800030B19F482F3890F8220000F08000C7
:1030400000B932E0C4EB04119B4800EB410050F89A
:10305000151F0D9141680E91007A8DF83C0006F025
:10306000020038B19DF8340080F080008DF8340003
:1030700026F002060DA98B480930FDF761FD13E02B
:10308000C4EB04118C4800EB4100008840F22F1182
:10309000884208D0C4EB0411874800EB4100008847
:1030A000B0F5977F00D100E000BF601CC4B2834838
:1030B000D0F87F02A0423FF76BAF814901A814F01E
:1030C00079FC7849093101A80AF014FD7948407863
:1030D00000F0080028B99DF8040080F080008DF809
:1030E0000400714890F81E0F28B19DF8040080F08C
:1030F00080008DF804000024C3E1C4EB04116E4885
:1031000000EB4100008841F2883188427DDD26F0E5
:103110000106C4EB0411684800EB4100008842F24C
:103120001071884216DD46F00106C4EB04116248B6
:1031300000EB41000088A0F51C5011385A49A1F855
:10314000650F28F0E7FB5848B0F8730F5649A1F80F
:103150004F0F0BE0C4EB0411574800EB410000880F
:10316000A0F5985089385049A1F84F0F27F096FFE5
:10317000042D31D14B480A9901600B9941609DF8AB
:10318000301001724B48407800F0400038B949488F
:10319000407800F0800010B900F0A8FB41E14548FC
:1031A000407800F0400030B142482F3890F82200BB
:1031B00000F0400068B93F48407800F080000028E7
:1031C000ECD03C482F3890F8220000F08000002816
:1031D000E4D000F08BFB24E13648407800F040005A
:1031E00020B93448407800F08000D0B131484078B0
:1031F00000F0400030B12F482F3890F8220000F046
:10320000400070B92B48407800E0B0E000F080004A
:1032100030B128482F3890F8220000F0800000B923
:103220002DE1012D60D1C4EB0411234800EB4101D5
:1032300000F6F230CA6802600A694260097D0172D4
:1032400006F0020038B19DF8340080F080008DF85F
:10325000340026F00206C4EB0412174800EB4200CB
:10326000C11C10481B3014F0A5FBC4EB041212481B
:1032700000EB420000F115010A481B302DF0C8F99F
:10328000084800F11B010A6802604A684260097A36
:103290000172C4EB0411084800EB410100F6FD3057
:1032A00010E00000B23B0020581D00207CB5030850
:1032B000B2B50308892E0020DB2F0020582D0020F6
:1032C000C4B5030851F8032F42634A688263097A40
:1032D00080F83C10A0F5686090F8B40E80F0800192
:1032E000824880F8B41E9CE0C4EB0411804800EBD7
:1032F000410050F8151F0D9141680E91007A8DF82C
:103300003C0006F0020038B19DF8340080F08000E7
:103310008DF8340026F0020601A90DA814F04AFB2E
:1033200074490DA80AF0E6FB00210DA829F046FE1D
:103330000DA90120FEF782FA6F480D9901600E99E0
:1033400041609DF83C1001721B380D9901600E9987
:1033500041609DF83C100172C4EB0412644901EB1A
:10336000420101F115000DA9FDF7EAFB59E0C4EB9C
:1033700004115F4800EB41000088B0F5FA7F1FDDC3
:10338000C4EB04115A4800EB41000088B0F5FC7F03
:1033900016DC012D14D1C4EB0411554800EB41019A
:1033A0005548CA6802600A694260097D01721B388B
:1033B00051490A6802604A684260097A017230E045
:1033C000C4EB04114A4800EB41000088B0F5FC7FD3
:1033D0000BDDC4EB0411464800EB41000088B0F55A
:1033E000FE7F02DC012D00D149E0C4EB041140480E
:1033F00000EB41000088B0F5977F02D1042D00D08A
:103400003DE03D483D490A6802604A684260097AE9
:1034100001721B3839490A6802604A684260097AB9
:1034200001721DB9364890F81E0F48B132480B3072
:1034300032490A6842634A688263097A80F83C101C
:10344000042D1BD02F4890F820102D48B0F8CC0741
:10345000814206DA2B4890F820002949A1F8510F43
:1034600003E000202649A1F8510FFDF757FD06F0B3
:10347000010008B1FDF76CFEFDF7B0FC00BF601C59
:10348000C4B21A48D0F87F02A0423FF736AE1C48BB
:1034900090F81E0F38B119480168019141680291F6
:1034A000007A8DF80C0014481B380A9901600B99BA
:1034B00041609DF8301001721B3007990160089936
:1034C00041609DF8241001720B3004994163059905
:1034D00081639DF8181080F83C100948A0F8657FBA
:1034E000A0F84F8F10B0BDE8F0810000582D0020EB
:1034F000DB2F0020C4B50308CD3B00207CB50308BA
:10350000581D00205A2E00202DE9F04186B00446B7
:10351000002700251CB9ED490020FEF78FF9EB4884
:103520001230EA490A6802604A684260097A017208
:10353000E74890F8EC0800287DD0E54890F80E0F99
:10354000002878D100BF0020E14981F8310F93E1D4
:1035500028F03AFCDF48007C00F00800E8B1022DBA
:1035600019D1DA48873803990160049941609DF8C0
:1035700014100172D64890F8310F00EBC000D34907
:103580001B310144D148873802680A6042684A60AA
:10359000007A087214E0012567E1022D00D164E190
:1035A000CB4890F8310F00EBC000C8491B310144F3
:1035B000C64887380A6802604A684260097A017220
:1035C000C248E138C4490A68C2664A680267097A93
:1035D00080F874105A3002F0F9FE00287DD0BB4804
:1035E0006138BD490A6842634A688263097A80F893
:1035F0003C103430B749B1F80D20A0F80120C97B48
:10360000C170B448007C00F0010040BBAF48E13815
:1036100000F15A010A68C2664A680267097A80F8AE
:1036200074100421A0F5606080F8B41E00F6B46147
:1036300000F66C6000E03CE114F0BCF90021A34806
:10364000753829F0BBFCA14975390120FEF7F6F861
:103650009E49753901F18700FDF772FA4FE0032C9E
:1036600001D0022C4BD19948E13800F15A010A6887
:10367000C2664A680267097A80F87410B4304078EC
:10368000992813D191482D38807899280ED18F48E8
:103690002D38C078992809D18C486C388E490A6831
:1036A00002604A684260097A017228E087486C38F3
:1036B000A0F11B010A6802604A684260097A01723F
:1036C00086493F30FDF73CFA0421854880F8B41E56
:1036D00000F6B46100F6756000E015E00AF00AFA41
:1036E0007A486C3829F002FD78496C39A1F109005B
:1036F0002CF08EFF7549753903A82CF089FF0CB1A9
:10370000042C01D1FDF7CCFE022C7CD17148007C49
:1037100000F00200002874D06C48753802F056FEA4
:1037200028B96C48007C00F004000028F3D07FB971
:10373000022D06D16B49D1F87C0103A917F020FDB9
:1037400005E06849D1F87C01604917F019FD0127AF
:103750001B2004F04DFE5F48007C00F0100018B301
:103760005C496148FCF78BFD5F48FCF774FD064639
:1037700020223046761C5C490A545A4AD2F8641218
:10378000594A9019FCF77BFD5248007C00F001007B
:1037900028B94E498739544817F0F2FC04E04B49E8
:1037A0006C39514817F0ECFC202240214E48FCF7C0
:1037B0001EFD49480168009141680191007A8DF829
:1037C00008004448B0F80D00ADF801004148FCF78E
:1037D00042FD804642463F494348FCF7F6FC022042
:1037E0008DF800006946404810300CF059FE252045
:1037F0003D49487400208874344975393A4817F0B7
:10380000BFFC31E0FFE7032C2ED13248007C00F0F2
:103810000100F8B12F48007C00F00200D0B12B4825
:10382000873802F0D3FD20B92A48007C00F004005C
:1038300080B126497539274817F0A2FC2548007C3D
:1038400000F0100030B12749D1F864021F496C39EB
:1038500017F096FC1D48E1381F490A68C2664A689D
:103860000267097A80F8741000BF194890F8310F88
:10387000401C174981F8310F154890F8311F90F816
:10388000EC088142FFF664AE012D10D10F491231D0
:103890000020FDF7D3FF0D48123001680391416805
:1038A0000491007A8DF81400022500274BE600BF32
:1038B00000BF074890F8110F20B9044912310020C9
:1038C000FDF7BCFF06B0BDE8F0810000393C0020E8
:1038D000581D0020602F00207CB50308A9B50308FF
:1038E000582D002028A403085C4D002010B58AB094
:1038F0005D48407800F00400002853D15B4801691E
:10390000019141690291007E8DF80C00584901A88F
:1039100014F050F8002442E053482F3890F8230068
:103920000121A1400840C0B304EBC4004F497C31E1
:1039300008440168079141680891007A8DF82400D5
:1039400001A907A814F036F84A4907A80AF0D2F8E6
:10395000002107A829F032FB07A90120FDF76EFF1F
:103960004148407800F0080028B99DF81C0080F01C
:1039700080008DF81C00404890F81E0F28B19DF87B
:103980001C0080F080008DF81C0004EBC401374A55
:103990007C32881807A9FDF7D3F8601CC4B2082C44
:1039A000BADB5FE031481D38016807914168089132
:1039B000007A8DF8240007A802F008FD002851D0F5
:1039C00000244DE028482F3890F823000121A14021
:1039D0000840002842D004EBC401244A7C328818F5
:1039E00002F0F4FCD0B304EBC401204A7C32881806
:1039F00002F0ECFC90B304EBC4001C497C31084499
:103A00000168049141680591007A8DF81800194900
:103A100004A813F0CFFF07A904A80AF06BF8134914
:103A2000263904A813F0C6FF124904A80AF062F868
:103A3000002104A829F0C2FA9DF8100000F0FC0053
:103A40008DF8100004A90120FDF7F8FE04EBC40175
:103A5000064A7C32881804A9FDF772F8601CC4B2CB
:103A6000082CAFDB0AB010BD892E0020D83B002007
:103A7000B2B50308C4B50308581D002002469142A0
:103A800001DD00207047531A03EBD370C0F34700E9
:103A9000F8E700002DE9FC5F664F6748007858B9E9
:103AA0004FF0050800206449A1F805001820C871EE
:103AB0000846B0F808A004E05F48B0F805A04FF051
:103AC0000A084FF0000901E008F1010817F80800A2
:103AD0000028F9D108F1010857484078C0000C21AE
:103AE00090FBF1F0554908805348C07888800C203D
:103AF000C8801820088148810024002001904E4889
:103B0000B0F80500002861D0002048804A48B0F88D
:103B1000055000264DE0A146785DA8B9474A518975
:103B2000474A10192022FCF762FB444840890444AC
:103B300000222046641C42490A546D1C3F484088BC
:103B4000401C3E49488034E0785D012801D1AD1C1D
:103B50002FE000260AE039484089B04205DD7A5D51
:103B60002046641C36490A54761C6D1C3248008974
:103B7000A84202DD785D0028EDD16D1CF0B2009006
:103B800005E020222046641C2D490A54761C2B484F
:103B90004089B042F5DC2146641C294A0098505403
:103BA00026484088401C254948800198401CC0B2E6
:103BB000019021480089A842ADDC204840881F4977
:103BC0004989491C48431D49C86003E000201B493E
:103BD0004880C86025464FF000091EE009EB080642
:103BE000B85D98B9761C4FF0000B06E00022204625
:103BF000641C13490A540BF1010BB85D584502DDF2
:103C0000B4F5005FF2D309F1020906E0BA5D20467F
:103C1000641C0B490A5409F10109D14502DAB4F5D3
:103C2000005FDBD30548C068611B08440349C860D6
:103C3000BDE8FC9F00F0036400F00364087C0020F2
:103C4000187C002010B5464890F8E10330B10128F7
:103C500020D002283AD0032871D153E0404890F890
:103C6000000F30B1012808D002280AD003280DD156
:103C700008E03C48FEF722FB0AE03A48FEF706FB64
:103C800006E005E03748FEF7DDFA01E0002010BD50
:103C900000BF56E0324890F8000F30B1012805D03F
:103CA00002280BD003280DD104E00DE02D48FEF7CB
:103CB000C9FA09E02B48FEF7C5FA00BF2948FEF70C
:103CC000D9FA01E00020E2E700BF3AE0244890F88A
:103CD000000F30B1012808D002280AD003280DD1E6
:103CE0000BE02048FEF7D2FA00BF1E48FEF7E6FAC6
:103CF00006E01C48FEF7CAFA02E001E00020C6E731
:103D000000BF1EE0164890F8000F30B1012808D01F
:103D1000022807D003280DD108E01248FEF7B6FAB2
:103D20000AE009E00F48FEF78DFA05E00D48FEF7BE
:103D3000A1FA01E00020AAE700BF02E0FFE70020AF
:103D4000A5E700BF084890F8900E00F0F80106487B
:103D500080F8901E0020024981F8000F012096E7AC
:103D6000581D0020E83B0020582D002010B51248B7
:103D700090F8000F30B1012808D002280AD003289B
:103D80000DD108E00D48FEF799FA0AE00B48FEF75E
:103D90007DFA06E005E00948FEF754FA01E000204C
:103DA00010BD00BF0221064880F8901E0020024985
:103DB00081F8000F0120F3E7581D0020E83B0020A8
:103DC000582D002070B50446257805F00F0020B16D
:103DD000012806D002280CD107E02046FEF756FA4B
:103DE00000BF2046FEF752FA00BF2046FEF74EFA0B
:103DF00000BF00BF257070BD0EB5294890F94E0177
:103E0000002802DA4FF0FF300EBD002029F0ACF997
:103E10002348D0F842010A21B0FBF1F201FB120164
:103E20001F4880F8491102200FF07EFD03200FF09B
:103E30007BFD02221A499031684632F0E7FC1949AD
:103E40006846FCF77DFE02226946154890300AF06C
:103E500099FB04200FF068FDFF21134880F8A31F91
:103E600001200FF061FD0F210D48CE3029F049F9F6
:103E700001460B4880F8DD10042100F58F70FEF735
:103E80000FFE10B96FF00800BEE705210748FEF7E6
:103E900007FE10B90120FEF73DFA0120B4E700004B
:103EA000D12C002085B50308581D0020EF2D0020DF
:103EB0002DE9F04706460C4615461F46681E00F0E1
:103EC0000F010120884000F0FF08012030490870F0
:103ED0003048007848B9207800EA080008B101208D
:103EE00000E00020401C2B4908702A480078022876
:103EF00002DD01202749087026480078022808D1F1
:103F000087F079002449C871207840EA08002070C1
:103F100007E087F06E002049C871207820EA080089
:103F200020701D48C079792807D11C48D0F84C155D
:103F30001948401DFCF7A3F906E01848D0F85015C1
:103F40001548401DFCF79BF9154890F87A1F00238F
:103F50001A460D202AF04EFE104901EB8601086832
:103F6000FF22002108F04EF905F0800068B10B49EE
:103F700001EB86010868FCF76EF9814605F00F0039
:103F80000123FF22494608F0C1FCBDE8F08700008C
:103F90009A020020980200205C4D002028A403080B
:103FA000583D002010B500F007F8024890F8030FC4
:103FB00010BD0000581D002010B511F02DFB002889
:103FC00055D00FF0FDF90446412C3DDD482C13DAA5
:103FD0002848A0F8494F09E00FF0F2F90446412CB7
:103FE00004DD482C02DA2348A0F8494F2148B0F8F4
:103FF000490F4228F0D03AE0482C0AD11D4890F8E9
:10400000FC0E00B300201B4981F8FC0EA1F84D0FF7
:104010002DE0184890F8FC0EA04228D0154880F8F2
:10402000FC4EA4F148001349A1F84D0F0846B0F822
:104030004D1FB0F82D05814219DD00200D49A1F872
:104040004D0F81F8FC0E12E00A4890F8C103A0421F
:104050000DD1084890F8190F462808D0054890F867
:104060002C0F20B91B20034981F8030F10BD00BF9E
:10407000FCE70000581D00207FB500216846FEF7D0
:104080006FFC0546CDB100240BE01DF8041004FBC5
:1040900004F00A300A4A105C41400DF80410601C1C
:1040A00004B2042CF1DB009E0648D0F84201B04275
:1040B00001D1012000E000200546E8B204B070BD47
:1040C00047B90308D12C00202A4A92F8022402F0B2
:1040D0000F0100294CD097282ED008DC15280FD0CE
:1040E000812813D0822817D0852837D11EE09A283E
:1040F00028D0CF282CD0E1282CD0F8282ED12BE0A6
:10410000012901D15D2000E0402030E0022901D1E9
:104110007D2000E07E202AE0012901D17B2004E0FF
:10412000062901D15D2000E0602020E0062901D1B0
:104130007B2000E040201AE0062901D1602000E049
:104140007C2014E0022901D15D2000E05E200EE019
:1041500024200CE07E200AE05B2008E07F2805DDBB
:10416000B02803DA00F07F02034B985C00BF00BF69
:1041700070470000581D0020DEBE030810B504463D
:10418000611CC8B2002211462FF074F810BD000067
:10419000F0B587B0044614B9474890F8034FFF2C98
:1041A0000CD10020FEF7B6F8434890F8030FFF2823
:1041B0007FD10020404981F8030F7AE03F48007822
:1041C000A0420DD1002C74D03D480068002870D169
:1041D0004FF4FA703A4908600120FEF79BF868E056
:1041E000022544B935480078002860D000210846EF
:1041F00032F0ECFD5BE0AA1CD1B2E8B232F0E6FD91
:104200003049D1F8EC02FCF726F8C7B23946132042
:10421000FFF734FC401CC6B2EAB22A49D1F8EC02DE
:10422000314632F0BAFD002C1CDD642C1ADC04F19E
:10423000D201244A02EB81010868FCF70CF8C7B2EE
:1042400039461320FFF71AFC401CC6B2691CCAB2DB
:1042500004F1D2011B4B03EB81010868314632F0B7
:104260009CFD1DE0152101A8FBF7C8FF1549D1F8F9
:10427000EC02FBF7F0FF06461248D0F8EC1232468B
:1042800001A8FBF7A2FF214601A830F0EAFC0020BC
:104290008DF81700681CC2B2092101A832F07DFD1B
:1042A0004FF4FA70064908600120FEF733F803481E
:1042B000047007B0F0BD0000581D002074020020FB
:1042C000E400002028A4030870B5FE4890F81F5FA2
:1042D00090F8C103A84206D14FF4FA61FA48A0F859
:1042E000521E002070BDF748B0F8490F00F47F401F
:1042F000B0F5706F03D0F34890F8030F08B10120B8
:10430000F0E7F248007858B10021EF4880F8901E9D
:104310000822EF4900F691602CF0F4F80EF082FFCD
:10432000284616F0F1F808B10120DBE7E7480078ED
:1043300048B1E8480078172805D1E74800780228F6
:1043400001D1062412E0E348007817280AD1E24898
:104350000078042806D10624DF480078401EDE4994
:10436000087003E028460CF007FD0446D54890F895
:10437000F30E38B10E2C05D00020D24981F81F0F62
:104380000120AFE7CF4890F8180F18B9CD4890F842
:104390000A0F58B1102C09DAD048007B1F2805D02D
:1043A0000E20C84981F8030F01209BE7C748007819
:1043B000A8B9C448B0F93F0F00280CDAC149B1F9D7
:1043C0003F0F002801DB014600E0414209B2BD4A2F
:1043D000A2F83F1F03E00020BA49A1F83F0FE01EFA
:1043E0000C2871D2DFE810F09A050C005005FF0090
:1043F00070004F0599055004700070007000530460
:10440000B048B0F8490F00F47060D0B1AD48B0F8D2
:10441000490F00F47060B0F5706F0CD011220821C4
:10442000042003F035FDAD48807A401EA949097883
:10443000081AA84908704720A249A1F8490F01208D
:1044400050E7A048B0F8490F442804D09D48B0F880
:10445000490F462839D19B4890F8E40E401C9949F1
:1044600081F8E40E084690F8E40E9C4909798842E8
:1044700003DD0120934981F8E40E9448007878B177
:104480009048B0F83F0F30B18E48B0F93F0F9349D4
:10449000097988420ADD01208A4981F8030F75E312
:1044A000884890F8E40E8749A1F83F0F854890F8B6
:1044B0003F0F844981F8E40E042008F0D7FE002065
:1044C00003F0D0FA01200DE7FEE3824800780028CF
:1044D00034DD81480078002830DD814800780028EC
:1044E0002CDD8048007818B101207849087004E07C
:1044F0000120744981F8030FD1E77A480078401C05
:104500007849087001207649087008F0C3FA08B9A4
:104510000020E7E66B4890F8030F70B9724B1A79E8
:10452000724B93F87A1F704B987803F0B1FC6E4889
:104530008178FF226E4807F065FEB0E76148B0F968
:104540003F0F66281ADD5F48B0F93F0F6C2815DA77
:104550005C48B0F83F0F6B2809D15A48B0F8490FB2
:10456000472804D00120574981F8030F05E0554939
:10457000B1F83F1F88B201F0E3FF90E75148B0F86F
:104580003F0F40B14F4890F83F0F401E514908700F
:104590000020534908704F48007810B15048007807
:1045A00088B94E4800794B490978884202DD49486C
:1045B000007818B901204749087004E045480078A0
:1045C000401C444908700E204A490870042008F035
:1045D0004DFE002042490870474908803E49087056
:1045E000404908705BE73748D0F8410F20F480302D
:1045F0003449C1F8410F0846B0F8490F442804D0A7
:104600000846B0F8490F462836D130480078A8B19E
:104610002C48B0F83F0F30B12A48B0F93F0F2F496E
:104620000979884204DD0120264981F8030F36E725
:10463000244890F83F0F234981F8E40E2148B0F850
:10464000490F442808D11F4991F8E41E01F2352191
:1046500088B221F09BF907E01A4991F8E41E01F2B3
:10466000392188B221F0F4F90120164981F8E40ECD
:10467000FF2008F0FBFD12E71248B0F8490F472869
:104680007ED11648007BE0B91448807A134908802F
:104690000846C07A0871002048710E48C1F806002B
:1046A0000120087315481649086003F016FC3120F4
:1046B00008F0DCFD0E200F49087000200849087042
:1046C000EDE61FE0581D0020582D00209902002023
:1046D000404D00209702002095020020D94C002078
:1046E000960200209802002028180020583D002043
:1046F0005C4D00209A0200208E0200206DD200083E
:1047000068020020FA48007B1F2815D0F94800787D
:1047100090B9F748D0F806000178F548807A401E35
:104720000844F54908700020F4490880F4490870ED
:10473000F4490870F4490870EF48007800281FD049
:10474000EF48007801287BD1EF480078002877D027
:10475000E848007810B901F0D9FDA0E60021EB4847
:1047600080F8901EE44800781F286ED1E84890F841
:10477000810888B30020E649A1F8650F084600E0EB
:10478000B5E190F88108E0490978B1EB400F58DCB9
:1047900000221146DFA007F035FDE149DA4A127820
:1047A000891A481E0122072107F02CFDDD4901204E
:1047B0000DF03AFAD649A1F8650F0846B0F8650F32
:1047C00098B90021084602F04FF930B9D04890F866
:1047D000CF03D5490870F1E337E0D24900200DF04E
:1047E00023FACB49A1F8650F1CE0C948B0F8490F7E
:1047F000442817D0C648B0F87C0800B2C449A1F8D4
:104800003F0F0021012002F02FF9C148B0F87C08C9
:10481000BF49B1F93F1F884204DABD4890F8CF0381
:10482000C1490870BA48B0F8650F00B2B849A1F89C
:104830003F0F002003F07AF9012003F077F904E03C
:104840001FE00020B249A1F83F0FB148B0F83F0F78
:1048500038B1AF48B0F83F0F401E00B2A7490880FA
:1048600004E00120AA4981F8030FA7E30020A5492D
:104870000870A5490870A64981F8030F01209D49D9
:10488000087000259C480078482876D010DC412824
:1048900074D006DC19282CD03C2870D040281CD1BC
:1048A0001CE045285BD046286BD04728F7D176E03E
:1048B0004938082811D2DFE800F0B5048EA910109D
:1048C000AF929A49D1F82801002130F049FA18B185
:1048D00000218F48A0F87C180325EFE09349D1F818
:1048E000A808012130F03CFA08B102F0A9FF032525
:1048F000E4E001238EA219461B2011F06BFE044652
:10490000012C06D1824890F805080A2804DD6B24A2
:1049100002E0022C00D16A246B2C01D06A2C1CD13D
:10492000824901EB84010868012130F019FAA0B135
:104930006B2C05D1802282498248FBF746FC04E0BB
:10494000802281497F48FBF740FC7148D0F8410F35
:1049500020F400706E49C1F8410F0325AEE07349A1
:10496000D1F814017749EA312AF004FB18B9242060
:10497000674981F8030F0325A0E01EE042E03DE017
:10498000FFE76A49D1F818016E49DC312AF0F2FAE2
:1049900018B924205E4981F8030F03258EE063498E
:1049A000D1F81C016749E3312AF0E4FA18B9242050
:1049B000574981F8030F032580E05C49D1F82001B5
:1049C0006049F1312AF0D6FA18B92420504981F80B
:1049D000030F032572E017F065FB03256EE01AF064
:1049E000CBFC44201BF0EEFB46201BF0EBFB18F049
:1049F0003DFA062025F0FEFF03255FE017F08CFF4F
:104A000003255BE009F0F0FF032557E04FF48050E9
:104A10000EF02AFE032551E04FF400500EF024FE64
:104A200003254BE000BF012348A20021492011F0DB
:104A3000D1FD0446002C3BDD0A2C39DC04F150008A
:104A400084B2A4F151000A2831D2DFE800F0050950
:104A50000E12161A1E22262B02200EF005FE26E04C
:104A60004FF480400EF000FE21E001200EF0FCFD2E
:104A70001DE008200EF0F8FD19E004200EF0F4FD12
:104A800015E010200EF0F0FD11E020200EF0ECFDFE
:104A90000DE040200EF0E8FD09E04FF480600EF0DC
:104AA000E3FD04E04FF400600EF0DEFD00BF00BF48
:104AB0004FF6FE708442B6D1032500BF00BFB5B1EA
:104AC000032D49D10A48807A401E0B490978081AFB
:104AD00009490870002007490870084908800849FA
:104AE00008700849087002F0BDFF012008E43EE0AC
:104AF000D94C002096020020970200208E02002050
:104B0000950200209802002099020020582D0020D4
:104B1000581D0020504C5520434F444500000000D4
:104B2000424D0020E93B00209002002028A4030809
:104B30004B4559424F4152442054595045000000C2
:104B400070A1030879210020ED91030853454C45DD
:104B50004354204954454D000020F64981F8F30E96
:104B6000084690F8CF03F4490870012009E4F3489F
:104B7000F3490860F348007850BBF348007828B147
:104B8000EC4890F8410F00F0080000B116E2EF4841
:104B90000078401CED4908700020ED490870EB4892
:104BA000007802281FDD012029F058FBE94890F821
:104BB0007A0F072806D1012029F05EFB062100208C
:104BC0000EF02EFCE34890F87A0FE349C8700AE033
:104BD000DF48007810B9DC48007820B90120D549B9
:104BE00081F8030FEAE10120DC49087007F052FF69
:104BF00008B9002024E4CF4890F8030FB0BBD34895
:104C0000007800283FDDD048007817283BD0CF48F7
:104C1000007801280BDDD04B1A79D978987803F009
:104C200037F9CD48C2788178CD4807F0EBFAC5480E
:104C30000078D8B1C5480078401CC44908700120EC
:104C400029F00CFBC34890F87A0F072806D1012001
:104C500029F012FB062100200EF0E2FB002002F0FA
:104C600001FF07F017FF10B900202CE40BE0B1485A
:104C7000B0F8410F00F4807028B9B7488178FF225E
:104C8000B74807F0BFFA99E125F08EFA96E1A948F6
:104C9000D0F8410FB3490840A649C1F8410F084672
:104CA000B0F8490F4FF24501884221D14520A14972
:104CB000A1F8490F0020A4490870AB4890F84F01B3
:104CC00000F00801A84800E061E180F84F110020E1
:104CD00002F0C8FE31F052FF082002F027FF95498C
:104CE000D1F8750F0822002107F08CFA452010E456
:104CF0009048B0F8490F00F4706090B143208D499E
:104D0000A1F8490F002002F0ADFE082002F00EFFCE
:104D10008849D1F8750F0822002107F073FA432063
:104D2000E4E69248864908608848007868BB8B486A
:104D3000007850BB7F48B0F8490F442804D07D4824
:104D4000B0F8490F462809D100207F490870FF209C
:104D500008F08CFA0E20864908702FE108F098FCC4
:104D60000020744981F8F30E4720A1F8490F8148CB
:104D70000069C1F8750FD1F8750F0822002107F0FE
:104D800041FA04207A49087018E16F480078C8B3E6
:104D90006E480078012836DD6B480078322832DA18
:104DA0006948007837282EDD67480078BF282ADA5E
:104DB00065480078C22826DD63480078232822DA77
:104DC0006148007824281EDD5F48007815281AD035
:104DD0005D480078162816D05B480078132812D05A
:104DE000002065490880594908705949087055499B
:104DF0000870504890F8C7034E4981F81F0FFFF71D
:104E000063FA3EE0FFE7002032F070F95B48007B78
:104E1000D0B14D480078B8B9594800885749088042
:104E2000574880780871002048714748C1F806004B
:104E30000020087352480079887251488079C872FE
:104E400001204149087007E04C48807A401E3E49E5
:104E50000978081A3C4908700020364981F8030F88
:104E600038490870384909783031C8B208F0FEF97D
:104E700000203A4908704049088034490870344994
:104E80000870012032E600BF2A48D0F8410F00F434
:104E90008030E0BB2748B0F8490F47283CD12F4865
:104EA0000078A0B337480078022835DD354800780F
:104EB000401E26490870274890F87A0F002810DD18
:104EC000244991F87A0F02F031FE224890F87A0FC7
:104ED000401EC1B21F4880F87A1F90F87A0F1E4911
:104EE000C8701C4991F87A0F02F020FE0020154985
:104EF00008701749087007F0CDFD58B10D4890F8BB
:104F0000030F38B914488178FF22154800E003E008
:104F100007F078F90120E9E500BF00BF0548D0F8A7
:104F2000410F00F4803078B3E0B205490968884742
:104F30000120DBE5581D00209002002069D2000806
:104F400068020020990200209702002095020020AC
:104F500098020020583D00202818002096020020CA
:104F60005C4D0020C7FFFEFFD12C00206DD2000851
:104F70009A02002028A403088E020020D94C0020A9
:104F800036B8030894020020FFE70020AEE513487E
:104F9000B0F8520E40F6B731884208DD0F48B0F83D
:104FA000520E40F61C41884201DA00209EE50C4872
:104FB000407808B1012099E5002097E500BF094835
:104FC0000078022808D0084890F8410F00F010003F
:104FD00010B9002002F046FD012087E5582D002081
:104FE000AA3B002095020020581D002010B525483E
:104FF000B0F8520EB0F57A7F41DA2248B0F8520E7E
:10500000642190FBF1F201FB1200A0BB1E48B0F836
:105010003F0F20B11C48B0F93F0F632804DD012089
:10502000194981F8030F10BD1648B0F8520E164901
:10503000B1F83F1F084481B21248A0F8521E12482E
:1050400090F8220FC0B10F4890F8B40E00F00300A2
:105050000D4981F8000F01F5F45001464A6B0261D9
:105060008A6B426191F83C1001760020064981F874
:10507000220F0EF0D7F802E000200449087000204B
:10508000D1E70000582D0020581D00209902002073
:1050900010B50F4890F8490F452804D00C48B0F8D7
:1050A000490F432812D102F0CFF978B10020094905
:1050B0000870074890F8030F40B9082032F08CF8C8
:1050C000002016F097F90120FDF724F910BD00002B
:1050D000581D00209C02002010B5784890F8F80375
:1050E00000F0080000287DD0754800780D2803D016
:1050F000734800780C2875D1714800780C2803D1CA
:105100003020704981F842006E4890F843103039E1
:1051100090F8420001EB0010C4B2262C14D008DC39
:10512000022C0FD0202C0ED0212C16D0252C36D1BD
:1051300028E0272C27D0282C07D0292C24D0372C46
:105140002DD10FE000BF00BF00BF5C4890F8FF0307
:1051500000F0800000B923E000BF0320574981F828
:10516000050F1DE0554890F8FF0300F0100040B116
:10517000544890F84400392803D102204F4981F85F
:10518000050F0DE000BF00BF4C4890F8FF0300F092
:10519000400018B10420494981F8050F00E000BF24
:1051A00000BF464890F8050F01281BDD46484749D7
:1051B0000A6802614A684261097A0176414890F8BA
:1051C0004D10303990F84C0001EB00103E49103181
:1051D00048703C4890F84B10303990F84A0001EB89
:1051E000001000E068E0C1B23748103081703548E7
:1051F00090F849003038C1B233481030C1702F48A0
:1052000090F8050F042812D12F4801460A6942631D
:105210004A698263097E80F83C100321A0F568602A
:1052200080F8B41E0120254981F8220F10E02348A0
:1052300090F8130F60B924482B3023490A690260A3
:105240004A694260097E017201201C4981F8130FEE
:105250001A4890F8050F022803D107201849087052
:1052600011E02020174981F8430081F842001348DB
:1052700090F8050F042803D00020104981F8220F70
:1052800005200F49087000240DE0C4F148000D49C5
:10529000085CC4F14E010B4A50542020C4F148016F
:1052A0005054601CC4B2072CEFDB082205494E3174
:1052B000054811302BF026F910BD0000581D0020C4
:1052C00099020020F24C0020D83B00207CB5030856
:1052D00070B510F0A1F908B9002070BD0EF070F89B
:1052E00004466E4981F81F0F01F5005090F8780FC1
:1052F00000F02000002876D020460BF03DFD0C2861
:1053000029D005DC48B104281BD006286CD11CE04C
:105310000E286BD00F28F9D114E06148007878B1DD
:10532000202060498870487008700020C8700822EA
:1053300003215C4806F066FF002059490870CCE75D
:1053400000BF00BF04F58070C7E7032002F0D0F96A
:1053500004F58070C1E70020534908705348B0F845
:10536000780F20F040015148A0F8781F504800788D
:10537000401C4F4908700846007840B101280CD005
:10538000022810D0032814D00020087000BF082283
:105390000021612005F02CFE22E00822002141209E
:1053A00005F026FE1CE0082200212A2005F020FE40
:1053B00016E020203B498870487008700020C870B3
:1053C00008220321374806F01DFF08220021402053
:1053D00005F00EFE0020324908703249087000BF07
:1053E00000BF002079E73DE02DE0FFE72C48007882
:1053F00020B92A4890F8CF032E4908702848007831
:1054000070B1202027498870487008700020C8704B
:1054100008220321234806F0F5FE002020490870E9
:105420002248B0F8780F20F020012048A0F8781F1B
:105430001522214900F66370FAF7C7FE082031F003
:10544000CBFE002049E71848007858B91848007882
:10545000032803D120460FF099FE3EE720460BF0CB
:105460009DFE3AE7402C16DA144800EB440005880C
:10547000302D01DB392D01DD2E2D01D128462CE701
:105480002F2D08D1054890F8410F00F0100010B9F9
:1054900043F2300021E744F480701EE7581D0020DD
:1054A000E8010020E4010020EC010020583D00202C
:1054B000E901002090020020E0180020792100205E
:1054C00010B50848007808490978884201D10020C1
:1054D00010BD31F071FE10F0B5FB044802490978A7
:1054E000405CF5E7650000206600002038050020DC
:1054F00010B52F488168A0F64D70D0F84D0F81424D
:105500000AD32B488168A0F64D70D0F84D0F081AC9
:10551000274949690C1A05E02648D0F84D0F24495F
:105520008968441AB4F5806F2AD22148007E022887
:1055300026DA02F0E3FC2049D1F83C0308220921D5
:1055400006F060FE0320FCF7E5FE08E01B4991F839
:10555000F513491EC8B2FEF711FE00B10AE010F0C3
:105560005BF80028F2D00DF02BFF144991F8C1131D
:105570008842EBD100BF0E48007E401C0C490876E3
:105580000B4881680B48D0F84D0F814209D3084879
:1055900081680848D0F84D0F081A05494969081A6A
:1055A00010BD0448D0F84D0F01498968401AF7E74B
:1055B000A53C0020582D002028A40308581D0020D9
:1055C000FEB506460C460CB90020FEBD1848016821
:1055D000009141680191007A8DF808000A2194FB3E
:1055E000F1F201FB124000EBD071C1F347050A2034
:1055F00094FBF0F0C1B20DF101004155204604EBDF
:10560000D0714910A4EB410139B10DF10100405DA9
:105610000007010E0DF1010041556946304603F0C7
:105620002FFC012801DA0020CFE70120CDE70000A0
:105630007CB5030870B58AB00446AD4890F8F8030D
:1056400000F00400002879D0A94890F8850830B906
:10565000A74890F8410F00F006000028F3D000257D
:10566000A34890F8410F00F00200002867D0A1483D
:105670000168079141680891007A8DF824009C48E0
:1056800090F884289C490DF11D00FAF79EFD07A8AB
:1056900000F09CFE08B90AB070BD012C13D19748E8
:1056A00094490A6802604A684260097A0172904827
:1056B00090F8F76E03208E4981F8F70E2AF002FB6E
:1056C0008B4880F8F76E8D48016804914168059118
:1056D000007A8DF8180000208DF8100085480168C8
:1056E000019141680291007A8DF80C0007E007A94A
:1056F00004A82AF08DFF824901A8FBF721FA07A927
:1057000004A803F0BDFB0028F1DA7E4890F8990E5A
:105710008DF8040079491B317848FBF711FA794874
:1057200090F8996E002180F8991E724801680491E2
:1057300041680591007A8DF8180009E0D6E03FE055
:1057400007A96E482AF064FF6D4904A8FBF7F8F931
:1057500007A96A4803F094FB0028F1DA8DF810607D
:1057600001A904A82AF054FF002104A827F026FC70
:1057700004A800F02BFE00285AD0604824385D4968
:105780000A6802604A684260097A0172584890F8D3
:10579000842859490F3901F6B340FAF716FD04A9D8
:1057A0005648243812F006F9564890F8750E80F0E5
:1057B0008001544880F8751E022C39D0052537E049
:1057C0004B4890F8410F00F0040088B34B48243850
:1057D00048490A6802604A684260097A017244488E
:1057E00090F8842844490F3901F6B340FAF7EDFCEC
:1057F0000421444880F8751E00F6AB6100F6756020
:1058000012F0D8F83D491B31A1F13F0012F0D2F857
:1058100000213A48243827F0D1FB3A4890F8750E19
:1058200080F08001374880F8751E022C00D01125C9
:10583000002D5BD031492439A1F1B20015F0A0FC54
:1058400000202B4981F8010F10E00BF023FA25F01E
:1058500067FC2948A1384078A84200D10DE02448CF
:1058600090F8010F401C224981F8010F204890F860
:10587000011F90F862078142E7DB00BF1C48D0F8A7
:10588000410F40F004001A49C1F8410F1B483F384E
:105890000168079141680891007A8DF82400174843
:1058A0003F3800F11B010A6802604A684260097AC9
:1058B00001720F4890F884280F490F3901F6CE4045
:1058C000FAF783FCFBF7C2FA0C483F3807990160EE
:1058D000089941609DF8241001721CB100F11B0170
:1058E000FBF72EF90120024981F8390F00BFD2E6FB
:1058F000581D00207CB503082A2F0020F13B002012
:1059000085B50308582D00202DE9F0410026FE48FA
:1059100090F81F5F90F81F1F90F8D003814204D1C8
:105920000FF074FE0120BDE8F081F74890F8030FF6
:1059300008B10020F7E728460BF01EFA0446102CA9
:1059400001DB0020EFE7022C03D1F04800780028AB
:1059500002DD0020EE490870EB4890F8F30E40B3EA
:105960000E2C1ED131F00AF90020E74981F8F30E20
:105970000021E848A0F8521E002002F073F8002031
:10598000E5490870E548807A401EE5490978081A1B
:10599000E349087009783031C8B207F067FC01208C
:1059A000C1E7062C05D00021DA48A0F8521E0120DC
:1059B000B9E70B2C30D006DC012C7DD0022C7CD03A
:1059C000062C7BD1F8E00C2C79D00D2C78D00E2C45
:1059D000F7D1CD48B0F8490F00F47060D0B1CA4893
:1059E000B0F8490F00F47060B0F5706F12D011225A
:1059F0000821042002F04CFAC848807A401EC849A9
:105A00000978081AC64908704720BF49A1F8490F0C
:105A1000012088E7002086E7BB48B0F8490F4328FB
:105A200004D0B948B0F8490F45284FD1B64890F88E
:105A3000F50E80F08000B44981F8F50E2022152182
:105A4000B848FAF7D4FBB849D1F88000FAF703FC5C
:105A50000746B548D0F880103A46B248FAF7B5FB89
:105A6000A94890F8F50E00F0800098B1A64890F88B
:105A7000F00E411CAB48C01D2FF0D8F82D20A949CD
:105A80000872A14890F8F00E4100A64809302FF0A6
:105A9000E8F80EE00121A348C01D2FF0C7F82D2023
:105AA000A0490872984890F8F01E9E4809302FF0DF
:105AB000D8F80822092104E048E02CE0A5E307E03B
:105AC00099E1984806F09EFB01202CE700202AE788
:105AD0008D48B0F8490F472806D08B48B0F8490FD9
